:020000040000FA
:10000000D01200209D010000B7010000B9010000DE
:1000100000000000000000000000000000000000E0
:10002000000000000000000000000000BB01000014
:100030000000000000000000BD010000BF01000042
:10004000C1010000B90B0000E50C0000C101000077
:10005000C101000000000000C1010000C10100005A
:10006000C1010000C1010000C90C0000C101000075
:10007000C1010000C1010000C1010000C101000078
:10008000C1010000C1010000C1010000C101000068
:10009000C1010000C1010000C1010000C101000058
:1000A000C1010000C10100000000000000000000CC
:1000B0000000000000000000000000000000000040
:1000C00000F002F800F03EF80CA030C80838241800
:1000D0002D18A246671EAB4654465D46AC4201D180
:1000E00000F030F87E460F3E0FCCB6460126334274
:1000F00000D0FB1AA246AB4633431847AC1E0000A3
:10010000CC1E0000103A02D378C878C1FAD8520742
:1001100001D330C830C101D504680C6070470000BD
:100120000023002400250026103A01D378C1FBD813
:10013000520700D330C100D50B6070471FB51FBDFB
:1001400010B510BD00F08EFC1146FFF7F7FF01F06F
:1001500073F900F0A6FC03B4FFF7F2FF03BC00F054
:10016000ABFC000070B505460C46164602E00FCC0D
:100170000FC5103E102EFAD2082E02D303CC03C5B1
:10018000083E042E07D301CC01C5361F03E02178B9
:100190002970641C6D1C761EF9D270BD03210C48B9
:1001A00002680A4302600B4802680A4302600A4878
:1001B00080470A480047FEE7FEE7FEE7FEE7FEE766
:1001C000FEE7000006480749074A084B7047000051
:1001D0002405004054050040910C0000C1000000BF
:1001E000D0060020D0120020D00A0020D00A002023
:1001F000F8B5042A2CD3830712D00B78491C03705E
:10020000401C521E83070BD00B78491C0370401C06
:10021000521E830704D00B78491C0370401C521EE9
:100220008B079B0F05D0C91ADF002023DE1B08C9EE
:100230000AE0FFF797FFF8BD1D4608C9FD401C46C0
:10024000B4402C4310C0121F042AF5D2F308C91A77
:10025000521EF0D40B78491C0370401C521EEAD485
:100260000B78491C0370401C012AE4D40978017002
:10027000F8BD0378C2781946437812061B02194369
:100280008378C0781B04194311430902090A000648
:1002900008437047020A08704A70020C8A70020E06
:1002A000CA70704770477047704700000246C80F19
:1002B000C00781434B0030B54B405B009B0D20D005
:1002C0001923DB06C91801231B05994220DB0324EF
:1002D000A40704251346AB400BD3002B04D1EB0637
:1002E00013409B00E34204D4012464070023121945
:1002F0005941FF231B0599420BD2C9000143500FFE
:1003000009E0CB0204D501430803024305D00548A8
:1003100030BDFF21C905084330BD08460721090546
:10032000884330BD0000C07FF0B5F94D0C091E09AF
:100330002C402E402F468BB0A7437DD0B543FCD038
:10034000002E7AD0002CFCD00D465D40ED0F2543E9
:10035000AC1BFF25AD0464190894C502440DC90205
:100360002143500DDC0204430120C0070143044334
:10037000D2020191200C110C00958C4601042346F9
:100380008B430A9161460904E24D8A430991010AAF
:100390007D4449198039097805464D4301266D1879
:1003A000F605751B6943C90C640B891C4C43641822
:1003B000B5012C1B250C2E04B4434C434D43210C9A
:1003C000691889090591009DE90701D00121C90734
:1003D00004912C4601996708CD072F434C08059DD1
:1003E000E10B4D432D0C29466646754302950D469B
:1003F00045432E46029D7D1BB44100950D465D434D
:1004000001942C0C2F040D465543AE462D0C3D4354
:10041000029503947546049C2D04641B049406D233
:10042000029C039D641C002675410395029401AC57
:1004300070CC009F7D1B01E03EE162E1B441090404
:100440000095079101940599A4086143090C0C4695
:100450004443650BE7040C4666467443A646640BAA
:100460003C43039502947446049DE4042C1B0494BD
:1004700006D2029C039D641C0026754103950294DC
:1004800001AC70CC009F7D1BB44101940C465C43D1
:100490000095650FE7000C465443A646640F3C43A5
:1004A000039502947446049DE4002C1B049406D228
:1004B000029C039D641C002675410395029401ACC7
:1004C00070CC009F7D1BB441AE09AF06049DC900EE
:1004D000AD092F43049DA406AD060495079D344342
:1004E00069180791059DE10B4D432D0C2946664681
:1004F000754302950D4645432E46029D7D1BB44132
:1005000000950D465D4301942C0C2F040D46554378
:10051000AE462D0C3D43029503947546049C2D0474
:10052000641B049406D2029C039D641C0026754142
:100530000395029401AC70CC009F7D1BB4410194E3
:100540008C050694079C890A611800950791019C07
:100550000599A4086143090C0D464543680BEF0457
:100560000D46644665436C0B3C43049FED047D1BC4
:10057000AC4602D20025641C6841009E019D371BD9
:1005800085410846584301950C46460FC500544323
:10059000600F28436546E4002C1B02D20025401C56
:1005A0006E41019D3F1AB5412846BD09800628438A
:1005B0008446A009BF064E020699A4067618074392
:1005C000079D002068410A99079019430020099B64
:1005D00000906046FF1913434041E20F64003A4324
:1005E000A4460446D71A8C41A04203D901200090AA
:1005F00020463A46C70F941840416246D20F224324
:10060000644664000494009CBE466400D71AA44665
:10061000044602978C417746002F01D1A04204D9AD
:100620006046401C8446029A2046C40FA646941891
:100630004041049A0546D20F224364466400D31A0F
:100640008D417146002901D1A84202D928461A4697
:10065000641C10430122002800D0164361020020D0
:10066000079B891904465C410223002C02DB4918D0
:1006700013466441089DCE0A2D145D194B0567058C
:10068000E10A2C050D1908993E43C9076940002B62
:1006900008D0934006D30022761C5141002B01D193
:1006A000760876001C4A002D43DB154241D0AA4350
:1006B0003FD030460BB0F0BD06180D464D41174CEB
:1006C0007642AC411AD395181C465C41134A6D42E0
:1006D000A24113D3012252054C00D4420AD15C003E
:1006E000D4420BD04B4002D592021143E2E74900BD
:1006F0004908DFE75940C90FC90718E00020084939
:10070000D8E7054801420DD10342F7D0F2E70000D7
:100710000000FF07941B00000000F07F0000E0FFD6
:100720000000F87F114859400143C01241400020A9
:10073000C0E70123089A9B069A4205DC0322520770
:100740008918C90FC907B5E7052252078918074A52
:100750001143D2125140ADE770B515461C46024612
:100760000B4628462146FFF7DFFD70BDFFFFFF7FE8
:100770001F22030C02D10F22000402D0030E03D06B
:1007800004E00020014670470002083A030F01D13F
:100790000001121F830F01D18000921E002801DB8F
:1007A0004000521E120551184205C0124118104651
:1007B0007047C10FC90700D0404201229207114380
:1007C000D6E701218907D3E7F0B58B4C0F09254601
:1007D00089B0BD437BD01D092646AE43FAD00E46F4
:1007E0005E402740F60F3E43254071D02401214250
:1007F000FBD0FF24AD19A4042D1B039501252D0565
:10080000DB02DB0AC9022B43C90A29431E01090185
:10081000040F130F050121431701880B8203914335
:100820002D098C46A90B1E438A039543B30B9A03EB
:1008300096433F09BA0B9403A74302962E467E4384
:100840000497B6464E19D7190C460196544305979E
:100850007E43371B7646BF1B3601B646BE0B3619A4
:1008600000967646BC043719009C01D3641C0094A2
:100870006400002F01D001263443029E049F75437B
:1008800066467E430496760034196E00341900944F
:10089000029C019E1C196643751BAE460694654674
:1008A0004519059C05956C43594375460891691A8D
:1008B0000191049E01465143A41B0491611A009CBE
:1008C0000791E10605D061090122114302E072E0BF
:1008D0006EE06109089D00272C0A2D066918049D09
:1008E0007C412A0A2D066918019D6241AC0DAD02BA
:1008F0006D185441079A910D920255196141029A5F
:10090000644658435443069B059A5A43121A131BD4
:100910009A0E9B015B187A41010B0005C3185141E7
:10092000220A200644195A419A4200D2491C012049
:100930004002814203D315230226F64302E014232A
:100940000326F6432020C51AA9401746AF40DA40D7
:100950000A4320460399D840091473181905511801
:10096000039A3843D2075140AC4009D00122944049
:1009700006D30022401C5141002C01D14008400008
:100980001E4A934212D3012203989206904207DB3B
:100990000520400709181A480143C012414004E0ED
:1009A000032040070818C10FC907002009B0F0BD97
:1009B0000020F107FAE705180C464C4111486D423A
:1009C000A04115D394181A465A410E4864429041EA
:1009D0000ED301204A004005824209D35A008242C8
:1009E00006D35940C90F084AC90700201143DDE763
:1009F00000200649DAE700000000FF07FE070000BC
:100A0000FFFFFF7F0000E0FF0000F07F0000F87FA5
:100A10000121C9050123411842001B06D3185B0EB2
:100A20000AD0C1100722D206891840075242D1428B
:100A300001D5520089187047090208D50146002ADD
:100A400003D0C10FC907002070471046704742020B
:100A500002D0002002497047072109050143F4E74D
:100A60000000F87F754600F023F8AE4605006946A1
:100A70005346C008C000854618B020B5FFF7A2FB5A
:100A800060BC00274908B6460026C0C5C0C5C0C521
:100A9000C0C5C0C5C0C5C0C5C0C5403D49008D4624
:100AA00070470446C046C0462046FFF754FB00008E
:100AB000004870477006002001491820ABBEFEE7D1
:100AC000260002007047000010B5002819DA1A4A03
:100AD00003071B0F083B9B089B00D2588307DC0EC3
:100AE000FF23A3409A438B071B0E8407E40EA34009
:100AF0001A43114B0407240F083CA408A4001A5100
:100B000018E00E4A03231B02D21883089B00D25818
:100B10008307DC0EFF23A3409A438B071B0E840739
:100B2000E40EA3401A43054B032424021B19840836
:100B3000A4001A5110BD00001CED00E000E100E02F
:100B400010B5002819DA1A4A03071B0F083B9B0847
:100B50009B00D2588307DC0EFF23A3409A438B07E8
:100B60001B0E8407E40EA3401A43114B0407240F05
:100B7000083CA408A4001A5118E00E4A03231B02E3
:100B8000D21883089B00D2588307DC0EFF23A340B2
:100B90009A438B071B0E8407E40EA3401A43054BB0
:100BA000032424021B198408A4001A5110BD00005C
:100BB0001CED00E000E100E010B52D48C068002801
:100BC00053D000202A49C8602A480078002848D01D
:100BD000012849D128480068002803D1012027496D
:100BE000886010BD26490968481CC117090F0918FB
:100BF00009110901411A234A1268914203D10120C7
:100C00001E498860EDE71E480068272148431E49B9
:100C100044181E488068C1B2222001551649C86890
:100C200021462331FFF736FB6078C007C00F00284C
:100C30000BD0204600F08AFB002803D0012000F0F2
:100C4000FDFECEE7002000F0F9FE0D490968481CC2
:100C5000C117090F091809110901411A084A116041
:100C600002E000F0C5FE00BF00BF00BFB9E7000012
:100C7000001100405100002000140040001000400E
:100C800054000020580000200F01002040150040B3
:100C900010B500F09BFB002805D0074807494860C5
:100CA000C8130749886100F075FB002802D00120B5
:100CB0000449886010BD0000DFFF07C00005004048
:100CC000006C00400006004004480068401C0349D6
:100CD000086000200249086070470000780000208A
:100CE00040A1004010B517490968481C0021164A68
:100CF0009160802800DB00201449096888420CD1EB
:100D000013498969134A1170114609781170124903
:100D10000968491C104A116010BD0D498969CAB2A1
:100D200008490B680968491C064C21600B49CA54E4
:100D300021460968802902DB00212246116000BF9C
:100D4000EAE700008C000020002100409000002015
:100D5000002500408400002080000020EF050020D6
:100D600030B47446641E2578641CAB4204D3635DC2
:100D70005B00E31830BC18471D46F8E702490878C5
:100D80000021014A117070471400002070B5112134
:100D9000032293000524240707252D0264198D00E2
:100DA000635100BF13461C0495002C4305252D07F5
:100DB00007263602AD198E00AC5100BF01490870FC
:100DC00070BD00001400002010B500F0B7FE2049EF
:100DD000096888423BD000F0B1FE1D4908601D48FB
:100DE000007800280ED1112000F07CFCC007C00F55
:100DF000002807D101201749087000F09FFE16490E
:100E0000086024E013480078012820D1112000F068
:100E100069FCC007C00F002802D000200D490870EF
:100E200000F08CFE0C490968401A7D21C9008842F7
:100E300003D902200949087009E0112000F052FC92
:100E4000C007C00F002802D001200449087010BD5F
:100E500018000020200000201C00002014000020AA
:100E600070B50446204600F057FE0506200A00F043
:100E700053FE00040543200C00F04EFE0002054323
:100E8000200E00F049FE284370BD30B50146002019
:100E90000A46002304E01578521C2C18E0B25B1CB3
:100EA000142BF8D30B7CC31AD8B230BD70B5142400
:100EB000A008A107890F002901D0012100E000212D
:100EC0004518012109070969012212075269521EBA
:100ED000514308462A46144900F078F91248007830
:100EE0000B280FD11048FFF7D0FF06460E48007CB4
:100EF000B04203D101200D49087002E000200B49E7
:100F0000087002E0002009490870084800780028AD
:100F100009D1142206490448FFF724F900F0E2FF42
:100F200001200249087070BDD40000202400002078
:100F30002800002008480068411CC817000F40180E
:100F400000110001081A054A1268904201D00120E0
:100F500070470020FCE700005C00002060000020DB
:100F600000B5002200F0C2F8002805D00348006850
:100F70002721484302494218104600BD580000206E
:100F80000F01002000B50023FFF7D4FF002805D093
:100F9000034800682721484302494318184600BD0A
:100FA0005C0000207F03002010B501203A49C8638F
:100FB00000BF01218140394A116000BF38480078E4
:100FC0003849C86038480078002804D0012806D085
:100FD00002280CD107E002203249086107E0002016
:100FE0003049086103E001202E49086100BF00BFBD
:100FF0002E4800782B4988602D48006800F08CFD51
:10100000C0B22C490843274948622B4888622849C6
:101010000A6809790B06110A19430846FFF720FFF1
:101020002049C861254808620020C8620120086381
:101030002348486123488861022048632248C863E6
:10104000224888630820224948600120214908601D
:1010500008460068102108431E49086008460068D9
:10106000042108431B490860084600680121084321
:10107000184908600120184908701848006827219D
:1010800048431749401807494860012015494860FE
:101090001549087010BD0000C01F004000E100E0CD
:1010A00042000020001500404100002040000020C8
:1010B0004800002000C2C3C4C8C7C6C5C2C2C2001F
:1010C0000600030020000401FFFF000021100100C2
:1010D0000013004000120040510000205400002086
:1010E0000F0100200010004050000020044800685C
:1010F00004490968884201D0012070470020FCE7BC
:10110000540000205800002005490968481CC117F8
:10111000090F091809110901411A014A11607047A4
:101120005800002010B50D480078002800D110BDEF
:1011300072B601200A49086100200A49C8630120EB
:1011400009490968012282401140002900D000E0CD
:1011500000BF62B6FFF728FF00BFE8E7500000209D
:1011600000100040C01F004000E200E0054909688F
:10117000481CC117090F091809110901411A014A30
:10118000116070475C00002070B504460D460248AF
:1011900030C0FFF7C7FF70BD4800002010B50446FF
:1011A000044800787E2801DA02490C70FFF7BAFF84
:1011B00010BD00004000002010B504460248047035
:1011C000FFF7B0FF10BD00004100002070B50346DE
:1011D0001C46002004E0860025688D511034401C18
:1011E0009042F8D370BD000030B50B460446022192
:1011F000164D696000BF164909680029FBD01349E4
:10120000886000BF124909680029FBD001210F4DF9
:10121000696000BF0E4909680029FBD0002104E085
:101220008D005D5925601034491C9142F8D300BFF0
:10123000074909680029FBD00021044D696000BFFF
:10124000034909680029FBD030BD000000E50140DA
:1012500000E40140012008490860002007490860B7
:1012600000BF064800680028FBD001200249486002
:1012700003488068C0B2704700D0004000D10040F1
:1012800000D5004001480078704700000C000020A5
:1012900070B58CB00446A078FF2803D1204600F03A
:1012A000F5FD4DE0A078012826D12648006A03907C
:1012B00001200007406E0290002069464871FFF748
:1012C000C9FF05466D066D0E022D01DA022502E00A
:1012D0007D2D00DD7D2568460571402101740D21BD
:1012E0004174022181740C2201A91330FEF780FFA2
:1012F00004A800F03DFB23E0A078022820D10C22B6
:10130000E11C09A8FEF774FF08A9087900F056FB54
:1013100008A9487900F058FB002213460B990A43AC
:101320000A981843154606462846314600F03EFB0B
:10133000054809A90EC9001D0EC000F0D3FD00BF6D
:101340000CB070BD40000010D400002070B5044601
:10135000002560784007800F0C490968884208D151
:1013600020462330FEF785FF09490968884200D1ED
:10137000012560784007800F04490860204623302B
:10138000FEF777FF02490860284670BD6400002020
:10139000680000200C48008CC0B2012812D10A4815
:1013A000808C0007000F00280CD10748806AF021CC
:1013B0000840402806D10448C06A0840002801D1EE
:1013C000012070470020FCE7C00F00F01948008C96
:1013D000C0B201282CD11748808C0007000F0028CC
:1013E00026D11448806AF0210840002806D111480F
:1013F000C06A0840002801D1012070470D48806A6A
:10140000F0210840102806D10A48C06A0840002888
:1014100001D10120F1E70748806AF0210840302817
:1014200006D10448C06A0840002801D10120E4E741
:101430000020E2E7C00F00F00020294908600120E9
:101440008107086000BF264800680028FBD00820FC
:1014500000F01CF9082000F02BF900F075FB0020CB
:10146000FFF794FC112000F033F9C007C00F0028EB
:1014700029D1322000F0EAF800F060FB044600F0C9
:101480005DFB054617E000F059FB401B7D2109017B
:10149000884210D9022000F0F9F8022000F036F955
:1014A00000F04CFB001BC82805D900F047FB0446A0
:1014B000082000F03BF9112000F00AF9C007C00F26
:1014C0000028E0D000BF082000F020F900F046F925
:1014D00000F0A4FBFFF7EAFC00F010FA00F002F8BD
:1014E000000100408AB09FE0504800F023FA002835
:1014F0000AD04E480078402803D14C48FFF7C8FE78
:1015000002E04A4800F0C2FC494800F019FC0028FB
:1015100006D047480078402802D0454800F028FA15
:1015200000F00CFB4349884246D900F007FB4249D2
:1015300009686431884225D3002500F0FFFA3E494E
:101540000860052168460171417100F02BF9012105
:1015500048404840054300F0C7F9002801D0022068
:1015600000E0002005436846857100F0F1F809901D
:10157000042209A901A80330FEF73AFE01A800F0F1
:1015800085FC00BF00F0DAFA2C4909683231884244
:1015900012D300F0D3FA294908604021684601724D
:1015A0000221417201218172FFF76CFE02A9C8700D
:1015B00002A800F0DDF900BFFFF7E0FB0446012CB4
:1015C00002D100F0F9F82AE0022C28D11D2000F009
:1015D0006FF800F0B3FA054606E0FF20913000F006
:1015E00035F8082000F0A2F8112000F071F8C007CB
:1015F000C00F002805D100F0A1FA114969188842EE
:10160000EBD300F0E7F972B600BFBFF34F8F0D4880
:101610000D49C860BFF34F8F00BF00BFFEE7FFF763
:10162000D3FB00F001F900BF5EE70000940000204A
:10163000B4000020DC0500000000002004000020B1
:10164000B80B00000400FA0500ED00E000B501460B
:1016500000F074FA024600BF00F070FA5318984286
:10166000FAD300BD10B58A0005231B070724240206
:101670001B1984001A5110BD10B58A0005231B07E1
:10168000072424021B1984001A5110BD03210522CE
:10169000120707231B02D2188300D1507047032181
:1016A0000522120707231B02D2188300D15070476E
:1016B00001218140014AD1607047000000050050BF
:1016C00001218140014AD1607047000000050050AF
:1016D000014603480069C840C007C00F70470000BA
:1016E00000050050014603480069C840C007C00F0C
:1016F0007047000000050050014603480069C840DB
:10170000C007C00F70470000000500500121814054
:10171000014A91607047000000050050012181409E
:10172000014A91607047000000050050012383408A
:101730001946064B5B68C340DA07D20F002A02D174
:10174000024B996001E0014BD960704700050050E1
:1017500001480068704700007000002010B51D208F
:10176000FFF79DFF1D20FFF7D9FF6420FFF76EFFF5
:101770000320FFF794FF0320FFF7A2FF6420FFF789
:1017800065FF0320FFF7CAFF6420FFF75FFF00211A
:101790000720FFF767FF03210120FFF763FF00F039
:1017A0002DF810BD10B50120FFF7A6FF002801D1CC
:1017B000012010BD0020FCE701211E20FFF752FF91
:1017C00000F0ECF901210320FFF74CFF0320FFF7A5
:1017D00077FF1D20FFF774FF0820FFF771FF13202C
:1017E000FFF76EFF00210520FFF73CFF01200249B3
:1017F000086000BFFEE700000005004010B51E2095
:10180000FFF74DFF1E20FFF789FF1320FFF747FF6B
:101810001320FFF783FF0520FFF741FF0520FFF7A7
:101820004FFF00F053F810BDF0B58BB000F086F913
:101830001E490968401A052835D91D480068002846
:1018400031D11C48806880B20A9000F077F91749BE
:1018500008600A98FEF7B5FF04460022164BFEF713
:1018600063FD01910090FEF721FD0390FFF7D0F892
:101870000646124A124BFEF7A7FF002201239B07E0
:1018800005910490FEF7A0FF00220E4B07910690F1
:10189000FEF79AFF09910890FEF708FD0A490860D3
:1018A00000F014F800BF0BB0F0BD00007400002081
:1018B000007400400075004000F88F40333333332C
:1018C0003333F33F00000840700000200348044910
:1018D0004860012008600349086070470A20000042
:1018E000007500400070004010B50720FFF704FFAE
:1018F000002801D0012010BD0020FCE770B50C4885
:10190000806800210A4AD2680B46114318430C46EE
:101910000546FFF749FB06494879FFF74DFC0449A6
:101920000879FFF73BFC20462946FFF72DFC70BDE8
:10193000D400002070B50546FFF7D8FB002812D070
:10194000FFF70EFB0446002C0CD02220005D074957
:1019500008702278A11C2846FEF74AFCFFF7D4FB4A
:10196000012070BD00BF0020FBE700000C0000203C
:1019700070B50446FFF7DEFA002815D060781E28FF
:1019800012DCFFF7FFFA0546002D0CD06078821CB0
:101990002146A81CFEF72CFC6078801C2870FFF7FD
:1019A000E5FB012070BD00BF0020FBE770B50446D9
:1019B0000D4620462946FFF7E7FB70BD10B50446EB
:1019C0002046FFF7EBFB10BD10B504462046FFF79D
:1019D000F3FB10BD10B5142203490448FEF7C2FB07
:1019E00000F080FA10BD000028000020D400002084
:1019F0000C480068272148430B4940180B494860B0
:101A00000B480068042188430949086008460068BB
:101A10000821084306490860012006490870064964
:101A200008617047540000200F010020001500409D
:101A30000012004051000020001000400146002923
:101A400004D02C4800682C4A506040E029480068C7
:101A50002A4A904210D02A4800682A4A12689042C6
:101A60000AD0284A1268501CC217120F12181211FD
:101A70001201821A234B1A6022480068204A126819
:101A8000904210D01F480068272250431E4A8018F9
:101A9000194A50601B480068272250431A4A801890
:101AA000144A106013E00420144A10704020907013
:101AB00002221248C270012202710F484030806831
:101AC000C2B20E4842710C4A50600A4A10600F4878
:101AD0000068082290430D4A1060104600680422F6
:101AE00010430A4A10600020094A10700120094A78
:101AF000106170476C00002000150040E8000020D5
:101B00005C000020600000207F03002000120040E5
:101B1000510000200010004010B502460020D2B253
:101B2000002108E01346CB40DB07DB0F0724641AD3
:101B3000A3401843491C0829F4D310BD014800688C
:101B4000704700007800002010B501200E49C860E1
:101B500004200E4908617D20C0000C494031086016
:101B600001200B49086000040A49486002210A204C
:101B7000FEF7AAFF0A2001218140074A116000BF39
:101B800001200149086010BD00A0004000A50040F0
:101B900000A2004000A3004000E100E010B50120D9
:101BA00008494860C86000200749086000211E20DD
:101BB000FFF762FD00210220FFF75EFD00200349D0
:101BC000087010BD00200040002500407C0000206F
:101BD00000200E490978002900D170470C49096896
:101BE0000C4A126891420ED00A490A680968491CD9
:101BF000084B19600849885C19460968802902DB8E
:101C000000211A46116000BFE7E700007C000020B9
:101C10008C00002090000020EF05002010B505206A
:101C20000007072109024018006A0C21884305219A
:101C300009070722120289180862052000071146C9
:101C40004018006A04210843052109078918086221
:101C50000520000711464018806F884305210907B9
:101C600089188867012080071849886188601E20CC
:101C70001749C86001201549C8610020144948610E
:101C8000042012498861886002201149886001207F
:101C90000F494031C86200070D49486204200860BE
:101CA00001200C49886003210220FEF749FF022031
:101CB00001218140084A116000BF042007494860A3
:101CC0000120044908600649087010BD0005005055
:101CD000002500400020004000E100E0002300401B
:101CE0007C00002007480078002800D17047064893
:101CF000006806490968884201D00120F6E7002003
:101D0000F4E700007C0000208C0000209000002000
:101D100008490978002900D170470749C86100BF08
:101D20000649C9690029FBD00021044AD16100BFDE
:101D3000F2E700007C000020002500400021004068
:101D400070B50546002068704C480078062804D11C
:101D500000204A4908704A4908707EE0FFF738FFC2
:101D60000446464800780300FEF7FAFF07050F1CFB
:101D7000264864757600AA2C01D1012000E00020DD
:101D80003E4908703F48047066E0AA2C01D1022049
:101D900000E00020394908703A48007800193949B4
:101DA000087059E02C7003203449087035480078D9
:101DB0000019344908704FE0334804703148007806
:101DC00000193049087000202D4908702E4800780D
:101DD000002807DD2C4800781E2803DC0420274952
:101DE00008700AE0284800781E2803DD00202349F7
:101DF000087002E00520214908702DE02048007895
:101E00001E2808DAA81C1E49097844541D48007889
:101E100000191C4908701A480078401C18490870BD
:101E20000846007818490978884202DB05201349E2
:101E3000087011E013480078A04206D112480078DB
:101E4000687006200D49087004E000200B490870F6
:101E50000B49087000E000BF00BFFFF743FF0028F8
:101E600004D006480078062800D077E703480078B9
:101E7000062801D1012070BD0020FCE70D000020E4
:101E80000E0000200F0000201000002070B5044656
:101E90000025AA20FFF73CFFAA25AF20FFF738FF57
:101EA0002846AF30C5B22078FFF732FF20784019BE
:101EB000C5B26078FFF72CFF60784019C5B20026E4
:101EC00008E0A11C885DFFF723FFA01C805D40197E
:101ED000C5B2761C6078B042F3DC2846FFF718FFE5
:101EE000012070BD70B51424A008A107890F002936
:101EF00001D0012100E0002145180A48FEF7C5FF86
:101F000006460848067401210907096901221207DB
:101F10005269521E514308462A460249FFF764F9A6
:101F200070BD0000D400002080807F7E7D7C7B7AA5
:101F30007978777676757473727171706F6E6E6D75
:101F40006C6C6B6A6A69686867666665646463631B
:101F500062616160605F5F5E5E5D5D5C5C5B5B5AA1
:101F60005A5959585857575656555555545453530E
:101F700052525251515050504F4F4F4E4E4D4D4D69
:101F80004C4C4C4B4B4B4A4A4A49494948484847B4
:101F900047474746464645454544444444434343F2
:101FA0004342424242414141C81F0000000000201C
:101FB00094000000040100005C2000009400002058
:101FC0003C120000200100000000000000000000A2
:101FD0000024F400000000000000000000000000E9
:101FE00000000000000000000000000000000000F1
:101FF0000B00000002000000120000009A78563426
:1020000000000000000000000200040000000000CA
:102010009A78563412000000010000000000000011
:1020200000000000000000000000000000000000B0
:1020300000000000000000000000000000000000A0
:102040000000000000000000000000000000000090
:0C20500000000000000000000000000084
:04000005000000C136
:00000001FF
